{
  "_format": "hh3-artifact-1",
  "contractName": "ReputationRegistry",
  "sourceName": "contracts/ReputationRegistry.sol",
  "abi": [
    {
      "inputs": [
        {
          "internalType": "address",
          "name": "_identityRegistry",
          "type": "address"
        }
      ],
      "stateMutability": "nonpayable",
      "type": "constructor"
    },
    {
      "inputs": [],
      "name": "AgentNotFound",
      "type": "error"
    },
    {
      "inputs": [],
      "name": "FeedbackAlreadyAuthorized",
      "type": "error"
    },
    {
      "inputs": [],
      "name": "InvalidAgentId",
      "type": "error"
    },
    {
      "inputs": [],
      "name": "UnauthorizedFeedback",
      "type": "error"
    },
    {
      "anonymous": false,
      "inputs": [
        {
          "indexed": true,
          "internalType": "uint256",
          "name": "agentClientId",
          "type": "uint256"
        },
        {
          "indexed": true,
          "internalType": "uint256",
          "name": "agentServerId",
          "type": "uint256"
        },
        {
          "indexed": true,
          "internalType": "bytes32",
          "name": "feedbackAuthId",
          "type": "bytes32"
        }
      ],
      "name": "AuthFeedback",
      "type": "event"
    },
    {
      "inputs": [
        {
          "internalType": "uint256",
          "name": "agentClientId",
          "type": "uint256"
        },
        {
          "internalType": "uint256",
          "name": "agentServerId",
          "type": "uint256"
        }
      ],
      "name": "acceptFeedback",
      "outputs": [],
      "stateMutability": "nonpayable",
      "type": "function"
    },
    {
      "inputs": [
        {
          "internalType": "uint256",
          "name": "agentClientId",
          "type": "uint256"
        },
        {
          "internalType": "uint256",
          "name": "agentServerId",
          "type": "uint256"
        }
      ],
      "name": "getFeedbackAuthId",
      "outputs": [
        {
          "internalType": "bytes32",
          "name": "feedbackAuthId",
          "type": "bytes32"
        }
      ],
      "stateMutability": "view",
      "type": "function"
    },
    {
      "inputs": [],
      "name": "identityRegistry",
      "outputs": [
        {
          "internalType": "contract IIdentityRegistry",
          "name": "",
          "type": "address"
        }
      ],
      "stateMutability": "view",
      "type": "function"
    },
    {
      "inputs": [
        {
          "internalType": "uint256",
          "name": "agentClientId",
          "type": "uint256"
        },
        {
          "internalType": "uint256",
          "name": "agentServerId",
          "type": "uint256"
        }
      ],
      "name": "isFeedbackAuthorized",
      "outputs": [
        {
          "internalType": "bool",
          "name": "isAuthorized",
          "type": "bool"
        },
        {
          "internalType": "bytes32",
          "name": "feedbackAuthId",
          "type": "bytes32"
        }
      ],
      "stateMutability": "view",
      "type": "function"
    }
  ],
  "bytecode": "0x60a060405234801561000f575f5ffd5b506040516106b93803806106b983398101604081905261002e9161003f565b6001600160a01b031660805261006c565b5f6020828403121561004f575f5ffd5b81516001600160a01b0381168114610065575f5ffd5b9392505050565b6080516106216100985f395f818160530152818161011f015281816101c3015261026901526106215ff3fe608060405234801561000f575f5ffd5b506004361061004a575f3560e01c8063134e18f41461004e5780638524d98814610092578063a9f94015146100a7578063aab206a3146100d1575b5f5ffd5b6100757f000000000000000000000000000000000000000000000000000000000000000081565b6040516001600160a01b0390911681526020015b60405180910390f35b6100a56100a036600461043b565b610109565b005b6100ba6100b536600461043b565b6103fd565b604080519215158352602083019190915201610089565b6100fb6100df36600461043b565b5f91825260016020908152604080842092845291905290205490565b604051908152602001610089565b60405163de99f15760e01b8152600481018390527f00000000000000000000000000000000000000000000000000000000000000006001600160a01b03169063de99f15790602401602060405180830381865afa15801561016c573d5f5f3e3d5ffd5b505050506040513d601f19601f82011682018060405250810190610190919061045b565b6101ad5760405163e93ba22360e01b815260040160405180910390fd5b60405163de99f15760e01b8152600481018290527f00000000000000000000000000000000000000000000000000000000000000006001600160a01b03169063de99f15790602401602060405180830381865afa158015610210573d5f5f3e3d5ffd5b505050506040513d601f19601f82011682018060405250810190610234919061045b565b6102515760405163e93ba22360e01b815260040160405180910390fd5b604051632de5aaf760e01b8152600481018290525f907f00000000000000000000000000000000000000000000000000000000000000006001600160a01b031690632de5aaf7906024015f60405180830381865afa1580156102b5573d5f5f3e3d5ffd5b505050506040513d5f823e601f3d908101601f191682016040526102dc919081019061050a565b905080604001516001600160a01b0316336001600160a01b031614610314576040516329f221b760e11b815260040160405180910390fd5b5f838152600160209081526040808320858452909152902054801561034c5760405163093898f360e31b815260040160405180910390fd5b6040805160208082018790528183018690524260608084019190915244608084015232901b6bffffffffffffffffffffffff191660a08301528251808303609401815260b49092018084528251928201929092205f818152808352848120805460ff1916600190811790915589825283528481208882529092529281208390558291869188917f875b92862bcb577e19434ed5238b2e5a1b58bd8606a26d1a414edf00eee18fd89190a45050505050565b5f828152600160209081526040808320848452909152812054801580159061043257505f8181526020819052604090205460ff165b91509250929050565b5f5f6040838503121561044c575f5ffd5b50508035926020909101359150565b5f6020828403121561046b575f5ffd5b8151801515811461047a575f5ffd5b9392505050565b634e487b7160e01b5f52604160045260245ffd5b6040516060810167ffffffffffffffff811182821017156104b8576104b8610481565b60405290565b604051601f8201601f1916810167ffffffffffffffff811182821017156104e7576104e7610481565b604052919050565b80516001600160a01b0381168114610505575f5ffd5b919050565b5f6020828403121561051a575f5ffd5b815167ffffffffffffffff811115610530575f5ffd5b820160608185031215610541575f5ffd5b610549610495565b81518152602082015167ffffffffffffffff811115610566575f5ffd5b8201601f81018613610576575f5ffd5b805167ffffffffffffffff81111561059057610590610481565b6105a3601f8201601f19166020016104be565b8181528760208385010111156105b7575f5ffd5b8160208401602083015e5f602083830101528060208501525050506105de604083016104ef565b604082015294935050505056fea264697066735822122048f9a5f421628d50f4e32338207346ccae5764301292e2609e2cd0f7facaf13264736f6c634300081c0033",
  "linkReferences": {},
  "deployedLinkReferences": {},
  "immutableReferences": {
    "10": [
      {
        "length": 32,
        "start": 83
      },
      {
        "length": 32,
        "start": 287
      },
      {
        "length": 32,
        "start": 451
      },
      {
        "length": 32,
        "start": 617
      }
    ]
  },
  "inputSourceName": "project/contracts/ReputationRegistry.sol",
  "buildInfoId": "solc-0_8_28-5890fe32ea38a3463e9fee913791e9786dbf6e44"
}