{
  "_format": "hh3-artifact-1",
  "contractName": "ValidationRegistry",
  "sourceName": "contracts/ValidationRegistry.sol",
  "abi": [
    {
      "inputs": [
        {
          "internalType": "address",
          "name": "_identityRegistry",
          "type": "address"
        }
      ],
      "stateMutability": "nonpayable",
      "type": "constructor"
    },
    {
      "inputs": [],
      "name": "AgentNotFound",
      "type": "error"
    },
    {
      "inputs": [],
      "name": "InvalidDataHash",
      "type": "error"
    },
    {
      "inputs": [],
      "name": "InvalidResponse",
      "type": "error"
    },
    {
      "inputs": [],
      "name": "RequestExpired",
      "type": "error"
    },
    {
      "inputs": [],
      "name": "UnauthorizedValidator",
      "type": "error"
    },
    {
      "inputs": [],
      "name": "ValidationAlreadyResponded",
      "type": "error"
    },
    {
      "inputs": [],
      "name": "ValidationRequestNotFound",
      "type": "error"
    },
    {
      "anonymous": false,
      "inputs": [
        {
          "indexed": true,
          "internalType": "uint256",
          "name": "agentValidatorId",
          "type": "uint256"
        },
        {
          "indexed": true,
          "internalType": "uint256",
          "name": "agentServerId",
          "type": "uint256"
        },
        {
          "indexed": true,
          "internalType": "bytes32",
          "name": "dataHash",
          "type": "bytes32"
        }
      ],
      "name": "ValidationRequestEvent",
      "type": "event"
    },
    {
      "anonymous": false,
      "inputs": [
        {
          "indexed": true,
          "internalType": "uint256",
          "name": "agentValidatorId",
          "type": "uint256"
        },
        {
          "indexed": true,
          "internalType": "uint256",
          "name": "agentServerId",
          "type": "uint256"
        },
        {
          "indexed": true,
          "internalType": "bytes32",
          "name": "dataHash",
          "type": "bytes32"
        },
        {
          "indexed": false,
          "internalType": "uint8",
          "name": "response",
          "type": "uint8"
        }
      ],
      "name": "ValidationResponseEvent",
      "type": "event"
    },
    {
      "inputs": [],
      "name": "EXPIRATION_SLOTS",
      "outputs": [
        {
          "internalType": "uint256",
          "name": "",
          "type": "uint256"
        }
      ],
      "stateMutability": "view",
      "type": "function"
    },
    {
      "inputs": [],
      "name": "getExpirationSlots",
      "outputs": [
        {
          "internalType": "uint256",
          "name": "slots",
          "type": "uint256"
        }
      ],
      "stateMutability": "pure",
      "type": "function"
    },
    {
      "inputs": [
        {
          "internalType": "bytes32",
          "name": "dataHash",
          "type": "bytes32"
        }
      ],
      "name": "getValidationRequest",
      "outputs": [
        {
          "components": [
            {
              "internalType": "uint256",
              "name": "agentValidatorId",
              "type": "uint256"
            },
            {
              "internalType": "uint256",
              "name": "agentServerId",
              "type": "uint256"
            },
            {
              "internalType": "bytes32",
              "name": "dataHash",
              "type": "bytes32"
            },
            {
              "internalType": "uint256",
              "name": "timestamp",
              "type": "uint256"
            },
            {
              "internalType": "bool",
              "name": "responded",
              "type": "bool"
            }
          ],
          "internalType": "struct IValidationRegistry.Request",
          "name": "request",
          "type": "tuple"
        }
      ],
      "stateMutability": "view",
      "type": "function"
    },
    {
      "inputs": [
        {
          "internalType": "bytes32",
          "name": "dataHash",
          "type": "bytes32"
        }
      ],
      "name": "getValidationResponse",
      "outputs": [
        {
          "internalType": "bool",
          "name": "hasResponse",
          "type": "bool"
        },
        {
          "internalType": "uint8",
          "name": "response",
          "type": "uint8"
        }
      ],
      "stateMutability": "view",
      "type": "function"
    },
    {
      "inputs": [],
      "name": "identityRegistry",
      "outputs": [
        {
          "internalType": "contract IIdentityRegistry",
          "name": "",
          "type": "address"
        }
      ],
      "stateMutability": "view",
      "type": "function"
    },
    {
      "inputs": [
        {
          "internalType": "bytes32",
          "name": "dataHash",
          "type": "bytes32"
        }
      ],
      "name": "isValidationPending",
      "outputs": [
        {
          "internalType": "bool",
          "name": "exists",
          "type": "bool"
        },
        {
          "internalType": "bool",
          "name": "pending",
          "type": "bool"
        }
      ],
      "stateMutability": "view",
      "type": "function"
    },
    {
      "inputs": [
        {
          "internalType": "uint256",
          "name": "agentValidatorId",
          "type": "uint256"
        },
        {
          "internalType": "uint256",
          "name": "agentServerId",
          "type": "uint256"
        },
        {
          "internalType": "bytes32",
          "name": "dataHash",
          "type": "bytes32"
        }
      ],
      "name": "validationRequest",
      "outputs": [],
      "stateMutability": "nonpayable",
      "type": "function"
    },
    {
      "inputs": [
        {
          "internalType": "bytes32",
          "name": "dataHash",
          "type": "bytes32"
        },
        {
          "internalType": "uint8",
          "name": "response",
          "type": "uint8"
        }
      ],
      "name": "validationResponse",
      "outputs": [],
      "stateMutability": "nonpayable",
      "type": "function"
    }
  ],
  "bytecode": "0x60a060405234801561000f575f5ffd5b50604051610a25380380610a2583398101604081905261002e9161003f565b6001600160a01b031660805261006c565b5f6020828403121561004f575f5ffd5b81516001600160a01b0381168114610065575f5ffd5b9392505050565b60805161098d6100985f395f8181608e015281816102870152818161043c01526104e0015261098d5ff3fe608060405234801561000f575f5ffd5b5060043610610085575f3560e01c80636cc19969116100585780636cc19969146101235780639748c8cb1461012b578063c941b1611461013e578063d097037a1461016a575f5ffd5b8063134e18f4146100895780634146624a146100cd578063625123da146100e25780636677174c1461010c575b5f5ffd5b6100b07f000000000000000000000000000000000000000000000000000000000000000081565b6040516001600160a01b0390911681526020015b60405180910390f35b6100e06100db366004610734565b6101c0565b005b6100f56100f0366004610767565b6103b9565b6040805192151583529015156020830152016100c4565b6101156103e881565b6040519081526020016100c4565b6103e8610115565b6100e061013936600461077e565b610408565b61015161014c366004610767565b610667565b60408051921515835260ff9091166020830152016100c4565b61017d610178366004610767565b610697565b6040516100c491905f60a0820190508251825260208301516020830152604083015160408301526060830151606083015260808301511515608083015292915050565b60648160ff1611156101e55760405163c715138d60e01b815260040160405180910390fd5b5f8281526020819052604090206002810154610214576040516337abe69b60e11b815260040160405180910390fd5b6103e8816003015461022691906107a7565b43111561024657604051637f780e6960e11b815260040160405180910390fd5b600481015460ff161561026c5760405163d22b40c560e01b815260040160405180910390fd5b8054604051632de5aaf760e01b81525f916001600160a01b037f00000000000000000000000000000000000000000000000000000000000000001691632de5aaf7916102be9160040190815260200190565b5f60405180830381865afa1580156102d8573d5f5f3e3d5ffd5b505050506040513d5f823e601f3d908101601f191682016040526102ff9190810190610850565b905080604001516001600160a01b0316336001600160a01b0316146103375760405163423057c560e11b815260040160405180910390fd5b600482018054600160ff1991821681179092555f868152602083815260408083208054851660ff8a16908117909155600283529281902080549094168517909355928501548554925191825287939092917f2f1d7a4e773d3a02a2db8d4ba16df1476ec97974bbc93c41427689f236664f1b910160405180910390a450505050565b5f8181526020819052604081206002810154158015929190610402575f6103e882600301546103e891906107a7565b431190508015816103fe5750600482015460ff16155b9250505b50915091565b8061042657604051633b8f85f760e21b815260040160405180910390fd5b60405163de99f15760e01b8152600481018490527f00000000000000000000000000000000000000000000000000000000000000006001600160a01b03169063de99f15790602401602060405180830381865afa158015610489573d5f5f3e3d5ffd5b505050506040513d601f19601f820116820180604052508101906104ad9190610931565b6104ca5760405163e93ba22360e01b815260040160405180910390fd5b60405163de99f15760e01b8152600481018390527f00000000000000000000000000000000000000000000000000000000000000006001600160a01b03169063de99f15790602401602060405180830381865afa15801561052d573d5f5f3e3d5ffd5b505050506040513d601f19601f820116820180604052508101906105519190610931565b61056e5760405163e93ba22360e01b815260040160405180910390fd5b5f8181526020819052604090206002810154156105d2576103e8816003015461059791906107a7565b43116105d2578183857f3fcaa5f72d6fb1deb76744afac4fbc92c823e52ffcf39ad2cdd9da66a80b519660405160405180910390a450505050565b6040805160a081018252858152602080820186815282840186815243606085019081525f608086018181528982529481905286812095518655925160018601559051600285015551600384015590516004909201805460ff19169215159290921790915590518391859187917f3fcaa5f72d6fb1deb76744afac4fbc92c823e52ffcf39ad2cdd9da66a80b519691a450505050565b5f8181526002602052604081205460ff1690811561069257505f8281526001602052604090205460ff165b915091565b6106c66040518060a001604052805f81526020015f81526020015f81526020015f81526020015f151581525090565b505f8181526020818152604091829020825160a081018452815481526001820154928101929092526002810154928201839052600381015460608301526004015460ff16151560808201529061072f576040516337abe69b60e11b815260040160405180910390fd5b919050565b5f5f60408385031215610745575f5ffd5b82359150602083013560ff8116811461075c575f5ffd5b809150509250929050565b5f60208284031215610777575f5ffd5b5035919050565b5f5f5f60608486031215610790575f5ffd5b505081359360208301359350604090920135919050565b808201808211156107c657634e487b7160e01b5f52601160045260245ffd5b92915050565b634e487b7160e01b5f52604160045260245ffd5b6040516060810167ffffffffffffffff81118282101715610803576108036107cc565b60405290565b604051601f8201601f1916810167ffffffffffffffff81118282101715610832576108326107cc565b604052919050565b80516001600160a01b038116811461072f575f5ffd5b5f60208284031215610860575f5ffd5b815167ffffffffffffffff811115610876575f5ffd5b820160608185031215610887575f5ffd5b61088f6107e0565b81518152602082015167ffffffffffffffff8111156108ac575f5ffd5b8201601f810186136108bc575f5ffd5b805167ffffffffffffffff8111156108d6576108d66107cc565b6108e9601f8201601f1916602001610809565b8181528760208385010111156108fd575f5ffd5b8160208401602083015e5f602083830101528060208501525050506109246040830161083a565b6040820152949350505050565b5f60208284031215610941575f5ffd5b81518015158114610950575f5ffd5b939250505056fea2646970667358221220f3d6c67d91c5baa25e74595c99464d32050016f113485434758937fcb272947564736f6c634300081c0033",
  "linkReferences": {},
  "deployedLinkReferences": {},
  "immutableReferences": {
    "14": [
      {
        "length": 32,
        "start": 142
      },
      {
        "length": 32,
        "start": 647
      },
      {
        "length": 32,
        "start": 1084
      },
      {
        "length": 32,
        "start": 1248
      }
    ]
  },
  "inputSourceName": "project/contracts/ValidationRegistry.sol",
  "buildInfoId": "solc-0_8_28-d5962682dd021135d35d101eece153d026d0883c"
}