{
  "_format": "hh3-artifact-1",
  "contractName": "IdentityRegistry",
  "sourceName": "contracts/IdentityRegistry.sol",
  "abi": [
    {
      "inputs": [],
      "stateMutability": "nonpayable",
      "type": "constructor"
    },
    {
      "inputs": [],
      "name": "AddressAlreadyRegistered",
      "type": "error"
    },
    {
      "inputs": [],
      "name": "AgentNotFound",
      "type": "error"
    },
    {
      "inputs": [],
      "name": "DomainAlreadyRegistered",
      "type": "error"
    },
    {
      "inputs": [],
      "name": "InsufficientFee",
      "type": "error"
    },
    {
      "inputs": [],
      "name": "InvalidAddress",
      "type": "error"
    },
    {
      "inputs": [],
      "name": "InvalidDomain",
      "type": "error"
    },
    {
      "inputs": [],
      "name": "UnauthorizedUpdate",
      "type": "error"
    },
    {
      "anonymous": false,
      "inputs": [
        {
          "indexed": true,
          "internalType": "uint256",
          "name": "agentId",
          "type": "uint256"
        },
        {
          "indexed": false,
          "internalType": "string",
          "name": "agentDomain",
          "type": "string"
        },
        {
          "indexed": false,
          "internalType": "address",
          "name": "agentAddress",
          "type": "address"
        }
      ],
      "name": "AgentRegistered",
      "type": "event"
    },
    {
      "anonymous": false,
      "inputs": [
        {
          "indexed": true,
          "internalType": "uint256",
          "name": "agentId",
          "type": "uint256"
        },
        {
          "indexed": false,
          "internalType": "string",
          "name": "agentDomain",
          "type": "string"
        },
        {
          "indexed": false,
          "internalType": "address",
          "name": "agentAddress",
          "type": "address"
        }
      ],
      "name": "AgentUpdated",
      "type": "event"
    },
    {
      "inputs": [],
      "name": "REGISTRATION_FEE",
      "outputs": [
        {
          "internalType": "uint256",
          "name": "",
          "type": "uint256"
        }
      ],
      "stateMutability": "view",
      "type": "function"
    },
    {
      "inputs": [
        {
          "internalType": "uint256",
          "name": "agentId",
          "type": "uint256"
        }
      ],
      "name": "agentExists",
      "outputs": [
        {
          "internalType": "bool",
          "name": "exists",
          "type": "bool"
        }
      ],
      "stateMutability": "view",
      "type": "function"
    },
    {
      "inputs": [
        {
          "internalType": "uint256",
          "name": "agentId",
          "type": "uint256"
        }
      ],
      "name": "getAgent",
      "outputs": [
        {
          "components": [
            {
              "internalType": "uint256",
              "name": "agentId",
              "type": "uint256"
            },
            {
              "internalType": "string",
              "name": "agentDomain",
              "type": "string"
            },
            {
              "internalType": "address",
              "name": "agentAddress",
              "type": "address"
            }
          ],
          "internalType": "struct IIdentityRegistry.AgentInfo",
          "name": "agentInfo",
          "type": "tuple"
        }
      ],
      "stateMutability": "view",
      "type": "function"
    },
    {
      "inputs": [],
      "name": "getAgentCount",
      "outputs": [
        {
          "internalType": "uint256",
          "name": "count",
          "type": "uint256"
        }
      ],
      "stateMutability": "view",
      "type": "function"
    },
    {
      "inputs": [
        {
          "internalType": "string",
          "name": "agentDomain",
          "type": "string"
        },
        {
          "internalType": "address",
          "name": "agentAddress",
          "type": "address"
        }
      ],
      "name": "newAgent",
      "outputs": [
        {
          "internalType": "uint256",
          "name": "agentId",
          "type": "uint256"
        }
      ],
      "stateMutability": "payable",
      "type": "function"
    },
    {
      "inputs": [
        {
          "internalType": "address",
          "name": "agentAddress",
          "type": "address"
        }
      ],
      "name": "resolveByAddress",
      "outputs": [
        {
          "components": [
            {
              "internalType": "uint256",
              "name": "agentId",
              "type": "uint256"
            },
            {
              "internalType": "string",
              "name": "agentDomain",
              "type": "string"
            },
            {
              "internalType": "address",
              "name": "agentAddress",
              "type": "address"
            }
          ],
          "internalType": "struct IIdentityRegistry.AgentInfo",
          "name": "agentInfo",
          "type": "tuple"
        }
      ],
      "stateMutability": "view",
      "type": "function"
    },
    {
      "inputs": [
        {
          "internalType": "string",
          "name": "agentDomain",
          "type": "string"
        }
      ],
      "name": "resolveByDomain",
      "outputs": [
        {
          "components": [
            {
              "internalType": "uint256",
              "name": "agentId",
              "type": "uint256"
            },
            {
              "internalType": "string",
              "name": "agentDomain",
              "type": "string"
            },
            {
              "internalType": "address",
              "name": "agentAddress",
              "type": "address"
            }
          ],
          "internalType": "struct IIdentityRegistry.AgentInfo",
          "name": "agentInfo",
          "type": "tuple"
        }
      ],
      "stateMutability": "view",
      "type": "function"
    },
    {
      "inputs": [
        {
          "internalType": "uint256",
          "name": "agentId",
          "type": "uint256"
        },
        {
          "internalType": "string",
          "name": "newAgentDomain",
          "type": "string"
        },
        {
          "internalType": "address",
          "name": "newAgentAddress",
          "type": "address"
        }
      ],
      "name": "updateAgent",
      "outputs": [
        {
          "internalType": "bool",
          "name": "success",
          "type": "bool"
        }
      ],
      "stateMutability": "nonpayable",
      "type": "function"
    }
  ],
  "bytecode": "0x6080604052348015600e575f5ffd5b5060015f55610eb4806100205f395ff3fe608060405260043610610079575f3560e01c806364b4f7511161004c57806364b4f7511461012157806378ddad121461013b57806391cab63e1461015a578063de99f1571461016e575f5ffd5b80630c6381071461007d5780632de5aaf7146100b25780633bfbbad7146100d15780634750d0fa14610100575b5f5ffd5b348015610088575f5ffd5b5061009c610097366004610914565b61019b565b6040516100a99190610934565b60405180910390f35b3480156100bd575f5ffd5b5061009c6100cc366004610992565b6102a8565b3480156100dc575f5ffd5b506100f06100eb3660046109ee565b61039e565b60405190151581526020016100a9565b61011361010e366004610a48565b61058b565b6040519081526020016100a9565b34801561012c575f5ffd5b506101136611c37937e0800081565b348015610146575f5ffd5b5061009c610155366004610a98565b6107a9565b348015610165575f5ffd5b506101136108c2565b348015610179575f5ffd5b506100f0610188366004610992565b5f90815260016020526040902054151590565b6101a36108d6565b6001600160a01b0382165f90815260036020526040812054908190036101dc5760405163e93ba22360e01b815260040160405180910390fd5b5f818152600160208181526040928390208351606081019094528054845291820180549184019161020c90610ad7565b80601f016020809104026020016040519081016040528092919081815260200182805461023890610ad7565b80156102835780601f1061025a57610100808354040283529160200191610283565b820191905f5260205f20905b81548152906001019060200180831161026657829003601f168201915b5050509183525050600291909101546001600160a01b03166020909101529392505050565b6102b06108d6565b5f82815260016020818152604092839020835160608101909452805484529182018054918401916102e090610ad7565b80601f016020809104026020016040519081016040528092919081815260200182805461030c90610ad7565b80156103575780601f1061032e57610100808354040283529160200191610357565b820191905f5260205f20905b81548152906001019060200180831161033a57829003601f168201915b5050509183525050600291909101546001600160a01b031660209091015280519091505f036103995760405163e93ba22360e01b815260040160405180910390fd5b919050565b5f848152600160205260408120805482036103cc5760405163e93ba22360e01b815260040160405180910390fd5b60028101546001600160a01b031633146103f957604051634f1f214760e01b815260040160405180910390fd5b83158015906001600160a01b03851615159061044f5760028787604051610421929190610b0f565b9081526020016040518091039020545f1461044f57604051637b857a6b60e01b815260040160405180910390fd5b801561048b576001600160a01b0385165f908152600360205260409020541561048b576040516316a163b960e11b815260040160405180910390fd5b81156104ea576002836001016040516104a49190610b1e565b9081526040519081900360200190205f9055600183016104c5878983610bef565b5087600288886040516104d9929190610b0f565b908152604051908190036020019020555b801561052f576002830180546001600160a01b039081165f9081526003602052604080822082905583546001600160a01b031916928916928317909355908152208890555b600283015460405189917f1b37db56c92268433e33fda6783791cb9e5f8ffababd3952ab40716443f1bf89916105759160018801916001600160a01b0390911690610ca9565b60405180910390a2506001979650505050505050565b5f6611c37937e0800034146105b25760405162976f7560e21b815260040160405180910390fd5b5f8390036105d3576040516375893cc160e11b815260040160405180910390fd5b6001600160a01b0382166105fa5760405163e6c4247b60e01b815260040160405180910390fd5b6002848460405161060c929190610b0f565b9081526020016040518091039020545f1461063a57604051637b857a6b60e01b815260040160405180910390fd5b6001600160a01b0382165f9081526003602052604090205415610670576040516316a163b960e11b815260040160405180910390fd5b5f8054908061067e83610d52565b919050559050604051806060016040528082815260200185858080601f0160208091040260200160405190810160405280939291908181526020018383808284375f9201829052509385525050506001600160a01b038516602092830152838152600180835260409091208351815591830151908201906106ff9082610d6a565b50604091820151600291820180546001600160a01b0319166001600160a01b03909216919091179055905182919061073a9087908790610b0f565b9081526040805160209281900383018120939093556001600160a01b0385165f9081526003909252902082905581907faef1fcdf962a03943b677ae3b92ef1b34c972aeef794ed6e9ba5f599b461883b9061079a90879087908790610e25565b60405180910390a29392505050565b6107b16108d6565b5f600284846040516107c4929190610b0f565b9081526020016040518091039020549050805f036107f55760405163e93ba22360e01b815260040160405180910390fd5b5f818152600160208181526040928390208351606081019094528054845291820180549184019161082590610ad7565b80601f016020809104026020016040519081016040528092919081815260200182805461085190610ad7565b801561089c5780601f106108735761010080835404028352916020019161089c565b820191905f5260205f20905b81548152906001019060200180831161087f57829003601f168201915b5050509183525050600291909101546001600160a01b0316602090910152949350505050565b5f60015f546108d19190610e65565b905090565b60405180606001604052805f8152602001606081526020015f6001600160a01b031681525090565b80356001600160a01b0381168114610399575f5ffd5b5f60208284031215610924575f5ffd5b61092d826108fe565b9392505050565b60208152815160208201525f6020830151606060408401528051806080850152806020830160a086015e5f60a0828601810191909152604095909501516001600160a01b03166060850152601f01601f191690920190920192915050565b5f602082840312156109a2575f5ffd5b5035919050565b5f5f83601f8401126109b9575f5ffd5b50813567ffffffffffffffff8111156109d0575f5ffd5b6020830191508360208285010111156109e7575f5ffd5b9250929050565b5f5f5f5f60608587031215610a01575f5ffd5b84359350602085013567ffffffffffffffff811115610a1e575f5ffd5b610a2a878288016109a9565b9094509250610a3d9050604086016108fe565b905092959194509250565b5f5f5f60408486031215610a5a575f5ffd5b833567ffffffffffffffff811115610a70575f5ffd5b610a7c868287016109a9565b9094509250610a8f9050602085016108fe565b90509250925092565b5f5f60208385031215610aa9575f5ffd5b823567ffffffffffffffff811115610abf575f5ffd5b610acb858286016109a9565b90969095509350505050565b600181811c90821680610aeb57607f821691505b602082108103610b0957634e487b7160e01b5f52602260045260245ffd5b50919050565b818382375f9101908152919050565b5f5f8354610b2b81610ad7565b600182168015610b425760018114610b5757610b84565b60ff1983168652811515820286019350610b84565b865f5260205f205f5b83811015610b7c57815488820152600190910190602001610b60565b505081860193505b509195945050505050565b634e487b7160e01b5f52604160045260245ffd5b601f821115610bea57805f5260205f20601f840160051c81016020851015610bc85750805b601f840160051c820191505b81811015610be7575f8155600101610bd4565b50505b505050565b67ffffffffffffffff831115610c0757610c07610b8f565b610c1b83610c158354610ad7565b83610ba3565b5f601f841160018114610c4c575f8515610c355750838201355b5f19600387901b1c1916600186901b178355610be7565b5f83815260208120601f198716915b82811015610c7b5786850135825560209485019460019092019101610c5b565b5086821015610c97575f1960f88860031b161c19848701351681555b505060018560011b0183555050505050565b604081525f5f8454610cba81610ad7565b806040860152600182165f8114610cd85760018114610cf457610d25565b60ff1983166060870152606082151560051b8701019350610d25565b875f5260205f205f5b83811015610d1c57815488820160600152600190910190602001610cfd565b87016060019450505b5050506001600160a01b0384166020840152905061092d565b634e487b7160e01b5f52601160045260245ffd5b5f60018201610d6357610d63610d3e565b5060010190565b815167ffffffffffffffff811115610d8457610d84610b8f565b610d9881610d928454610ad7565b84610ba3565b6020601f821160018114610dca575f8315610db35750848201515b5f19600385901b1c1916600184901b178455610be7565b5f84815260208120601f198516915b82811015610df95787850151825560209485019460019092019101610dd9565b5084821015610e1657868401515f19600387901b60f8161c191681555b50505050600190811b01905550565b60408152826040820152828460608301375f60608483018101919091526001600160a01b03929092166020820152601f909201601f191690910101919050565b81810381811115610e7857610e78610d3e565b9291505056fea26469706673582212204c2f9fc21788bddd90a65a6d6103cf4517abe9f8c71c232e0d8edc050e402d9664736f6c634300081c0033",
  "linkReferences": {},
  "deployedLinkReferences": {},
  "immutableReferences": {},
  "inputSourceName": "project/contracts/IdentityRegistry.sol",
  "buildInfoId": "solc-0_8_28-20f34d6ce9f800a909eef7a29420477815dc9bfb"
}